:100000000C942A000C943C000C943C000C943C0092
:100010000C943C000C943C000C943C000C943C0070
:100020000C943C000C943C000C943C000C943C0060
:100030000C943C000C943C000C9452000C943C003A
:100040000C943C000C943C000C943C000C946D000F
:100050000C943C0011241FBECFE5D4E0DEBFCDBF21
:1000600010E0A0E6B0E001C01D92A336B107E1F7B1
:100070000E9449000C9482000C9400008DE183BF23
:1000800087B3896087BB89B7826089BF83E68CBFED
:10009000089578943E9A86B18B6A86B90E943E0094
:1000A000369AFFCF1F920F920FB60F9211248F93A3
:1000B0009F9384B195B19093610080936000969571
:1000C00087959695879580936200369A9F918F9138
:1000D0000F900FBE0F901F9018951F920F920FB6A2
:1000E0000F9211248F939F93809162008CBF88B3ED
:1000F00091E0892788BB9F918F910F900FBE0F9041
:080100001F901895F894FFCF41
:00000001FF
