:100000000C942A000C9434000C9434000C943400AA
:100010000C9434000C9434000C9434000C94340090
:100020000C9434000C9434000C9434000C94340080
:100030000C9434000C9434000C9434000C94340070
:100040000C9434000C9434000C9434000C9445004F
:100050000C94340011241FBECFE5D4E0DEBFCDBF29
:100060000E9436000C9455000C9400008AE183BF76
:10007000BB9A89B7826089BF7894FFCF8AE183BF3A
:10008000BB9A89B7826089BF08951F920F920FB6FD
:100090000F9211248F9388E28CBF81E38CBF8F91E4
:0E00A0000F900FBE0F901F901895F894FFCF91
:00000001FF
