:100000000C942A000C943F000C943F000C943F0089
:100010000C943F000C943F000C943F000C943F0064
:100020000C943F000C943F000C943F000C943F0054
:100030000C943F000C943F000C943F000C943F0044
:100040000C943F000C943F000C943F000C943F0034
:100050000C943F0011241FBECFE5D4E0DEBFCDBF1E
:1000600010E0A0E6B0E0E0E1F2E002C005900D9201
:10007000A037B107D9F70E94BE000C9406010C947A
:1000800000003E9A87EA86B9089527B1877090707C
:10009000282B27B9369A349BFECF349A24B135B138
:1000A000C9010895282F207F28BBC098C198C29A03
:1000B00020EA3FE0F9013197F1F7C29890E044E07F
:1000C000880F991F4A95E1F788BBC098C198C29ADA
:1000D000C9010197F1F7C298089582E00E94520089
:1000E00088E20E9452008EE00E94520086E00E9448
:1000F00052000895282F207F28BBC09AC198C29A29
:1001000020EA3FE0F9013197F1F7C29890E054E01E
:10011000880F991F5A95E1F788BBC09AC198C29A77
:10012000C9010197F1F7C2980895CF93DF93EC01CD
:1001300002C00E947A0089918823D9F7DF91CF917C
:100140000895CF93DF93EC0184E00E9452000EC02B
:10015000CE016AE070E00E94F200805D0E947A00A9
:10016000CE016AE070E00E94F200EB01209781F777
:1001700086E00E945200DF91CF9108950F931F9364
:10018000CF93DF931ABA8FEF87BB0E946D003E9A20
:1001900087EA86B920ED37E0C0E9D1E005C0CE019D
:1001A0000197F1F72150304021153105C1F780E862
:1001B0000E94520080E690E00E94950080EC0E9430
:1001C000520080E30E947A0080E090E00E944500A7
:1001D0008C0183EC0E945200C8010E94A10020ED16
:1001E00037E0DDCFAA1BBB1B51E107C0AA1FBB1F15
:1001F000A617B70710F0A61BB70B881F991F5A95B3
:10020000A9F780959095BC01CD010895F894FFCF92
:100210004144432076616C75653D2020202000001C
:00000001FF
