:100000000C942A000C9473000C947E000C94340021
:100010000C9434000C9434000C9434000C94340090
:100020000C9434000C9434000C9434000C94340080
:100030000C9434000C9434000C9434000C94340070
:100040000C9434000C9434000C9434000C94340060
:100050000C94340011241FBECFE5D4E0DEBFCDBF29
:100060000E9436000C9489000C94000081B3837FB9
:1000700081BB82B38C6082BB81B3806381BB20E98A
:1000800031E0B0E4A1E070E160E250E847E082993D
:100090000DC084EF91E0F9013197F1F70197D9F79D
:1000A000829BF5CFBBBFA5BF7894F1CF83990DC0DC
:1000B00084EF91E0F9013197F1F70197D9F7839B2C
:1000C000E6CF5BBF45BF7894E2CF88B3872788BB74
:1000D00088B3862788BB88E893E1F9013197F1F767
:1000E0000197D9F7D4CF1F920F920FB60F92112418
:1000F000C4980F900FBE0F901F9018951F920F92EB
:100100000FB60F921124C5980F900FBE0F901F903D
:060110001895F894FFCFE2
:00000001FF
