:100000000C942A000C9434000C9434000C943400AA
:100010000C9434000C9434000C9434000C94340090
:100020000C9434000C9434000C9434000C94340080
:100030000C9434000C9434000C9434000C94340070
:100040000C9434000C9434000C9434000C94340060
:100050000C94340011241FBECFE5D4E0DEBFCDBF29
:100060000E9436000C947E000C9400000F931F93A6
:100070008FEF81BB12BE83E083BF1DBC1CBC8EBD55
:1000800014BC85BD60E070E040E050E020E030E06E
:1000900091E0E1E0F0E004E0A0E410E2B0E108B6B5
:1000A00000FEFDCF92BF98BF6F5F7F4F6A30710532
:1000B00028F082B38B2782BB60E070E008B602FEB6
:1000C000FDCFFDBDECBD08BF4F5F5F4F4431510513
:1000D00028F082B3812782BB40E050E008B606FEDC
:1000E000FDCF94BDA8BF2F5F3F4F2F303105B8F231
:1000F00082B38A2782BB20E030E0D1CFF894FFCFD3
:00000001FF
