:100000000C942A000C943F000C943F000C943F0089
:100010000C943F000C943F000C943F000C943F0064
:100020000C943F000C943F000C943F000C943F0054
:100030000C943F000C943F000C943F000C943F0044
:100040000C943F000C943F000C943F000C943F0034
:100050000C943F0011241FBECFE5D4E0DEBFCDBF1E
:1000600010E0A0E6B0E0E8E8F2E002C005900D92F2
:10007000A636B107D9F70E94D8000C9442010C941F
:10008000000098B3282F207F9F70292B28BBC09891
:10009000C19A25E0922F9A95F1F7C198E0E2F3E03A
:1000A0003197F1F798B38295807F9F70982B98BB1A
:1000B000C19A2A95F1F7C19880E49FE10197F1F781
:1000C000089598B3282F207F9F70292B28BBC09AB2
:1000D000C19A25E0922F9A95F1F7C198E0E2F3E0FA
:1000E0003197F1F798B38295807F9F70982B98BBDA
:1000F000C19A2A95F1F7C19880E49FE10197F1F741
:1001000008958FEF87BB88EC90E020E931E0F9019A
:100110003197F1F70197D9F782E00E94410088E218
:100120000E9441008CE00E94410086E00E94410054
:1001300081E00E94410080E49FE10197F1F708957A
:10014000CF93DF93EC0102C00E9461008991882364
:10015000D9F7DF91CF910895CF93DF93EA018823F8
:1001600031F4603168F46F70862F806807C0813089
:1001700039F4603128F46F70862F806C0E94410042
:10018000CE010E94A000DF91CF91089581E00E94EE
:10019000410080E49FE10197F1F780E80E9441006F
:1001A0000895369A349A369A24B135B1C901089522
:1001B0000F931F93DF93CF9300D000D00F92CDB752
:1001C000DEB70E9481003E9A789486B18B6886B92A
:1001D00080E690E00E94A00080EC0E9441008E0129
:1001E0000F5F1F4F0E94D100B8014AE050E00E940B
:1001F000FD00C8010E94A000F5CFFB019F01E8941B
:100200004230C4F04532B4F44A3029F497FB1EF46E
:10021000909581959F4F642F77270E942E01805DD6
:100220008A330CF0895D8193CB010097A1F716F416
:100230005DE251931082C9010C941E01DC01FC01A6
:10024000672F71917723E1F7329704C07C916D930A
:1002500070836291AE17BF07C8F30895AA1BBB1B3A
:1002600051E107C0AA1FBB1FA617B70710F0A61BB6
:10027000B70B881F991F5A95A9F780959095BC01D7
:08028000CD010895F894FFCFB1
:060288004144433D00006B
:00000001FF
