:100000000C942A000C943C000C943C000C943C0092
:100010000C943C000C943C000C943C000C943C0070
:100020000C943C000C943C000C943C000C943C0060
:100030000C943C000C943C000C943C000C943C0050
:100040000C943C000C943C000C943C000C943C0040
:100050000C943C0011241FBECFE5D4E0DEBFCDBF21
:1000600010E0A0E6B0E001C01D92A636B107E1F7AE
:100070000E949F030C940A040C940000672B09F063
:100080009FC0009711F4D89808958130910511F41C
:10009000D99808958230910511F4DA980895833043
:1000A000910511F4DB9808958430910511F4DC98E2
:1000B00008958530910511F4DD98089586309105F5
:1000C00011F4DE9808958730910511F4DF980895B2
:1000D0008A30910511F4C09808958B30910511F480
:1000E000C19808958C30910511F4C29808958D300F
:1000F000910511F4C39808958E30910511F4C498B8
:1001000008958F30910511F4C598089580319105B7
:1001100011F4C69808958131910511F4C798089596
:100120008431910511F4A89808958531910511F451
:10013000A99808958631910511F4AA9808958731F8
:10014000910511F4AB9808958831910511F4AC989C
:1001500008958931910511F4AD9808958A3191057A
:1001600011F4AE9808958B31910511F4AF9808956C
:100170008E31910511F4909808958F31910511F405
:10018000919808958032910511F4929808958132E2
:10019000910511F4939808958232910511F4949881
:1001A00008958332910511F495980895843291054C
:1001B00011F496980895859709F09FC0979808952F
:1001C000009711F4D89A08958130910511F4D99AC5
:1001D00008958230910511F4DA9A089583309105DB
:1001E00011F4DB9A08958430910511F4DC9A089596
:1001F0008530910511F4DD9A08958630910511F44A
:10020000DE9A08958730910511F4DF9A08958A30B7
:10021000910511F4C09A08958B30910511F4C19A9B
:1002200008958C30910511F4C29A08958D3091058E
:1002300011F4C39A08958E30910511F4C49A08956B
:100240008F30910511F4C59A08958031910511F40C
:10025000C69A08958131910511F4C79A08958431A1
:10026000910511F4A89A08958531910511F4A99A80
:1002700008958631910511F4AA9A08958731910560
:1002800011F4AB9A08958831910511F4AC9A089550
:100290008931910511F4AD9A08958A31910511F4CF
:1002A000AE9A08958B31910511F4AF9A08958E316D
:1002B000910511F4909A08958F31910511F4919A56
:1002C00008958032910511F4929A08958132910532
:1002D00011F4939A08958232910511F4949A089535
:1002E0008332910511F4959A08958432910511F4A1
:1002F000969A0895859709F4979A08950F931F93F6
:10030000082F182F80FF05C080E090E061E070E0CA
:1003100004C080E090E060E070E00E943E0011FFC9
:1003200005C081E090E061E070E004C081E090E011
:1003300060E070E00E943E0012FF05C082E090E0A5
:1003400061E070E004C082E090E060E070E00E9454
:100350003E0013FF05C083E090E061E070E004C060
:1003600083E090E060E070E00E943E0014FF05C072
:1003700082E290E061E070E004C082E290E060E040
:1003800070E00E943E0015FF05C083E290E061E04E
:1003900070E004C083E290E060E070E00E943E0004
:1003A00016FF05C084E290E061E070E004C084E2E2
:1003B00090E060E070E00E943E0007FF05C085E22B
:1003C00090E061E070E004C085E290E060E070E001
:1003D0000E943E001F910F9108950F931F93182FB5
:1003E0008AE190E060E070E00E943E00812F0E9470
:1003F0007E018BE190E061E070E00E943E0000EA47
:100400001FE0C8010197F1F78BE190E060E070E038
:100410000E943E00C8010197F1F71F910F910895C6
:1004200081E00E94ED010895813029F4862F8058E3
:100430000E94ED010895823021F4862F80540E949D
:10044000ED0108958AE190E060E070E00E943E00D6
:100450008BE190E060E070E00E943E0088EC90E06C
:1004600020E931E0F9013197F1F70197D9F780E3FD
:100470000E94ED0180E29EE40197F1F780E30E9483
:10048000ED0180EA9FE00197F1F780E30E94ED0122
:1004900080E49CE90197F1F788E30E94ED018CE08C
:1004A0000E94ED0181E00E94ED0186E00E94ED01D5
:1004B00008950F931F93182F8AE190E061E070E098
:1004C0000E943E00812F0E947E018BE190E061E05E
:1004D00070E00E943E0000EA1FE0C8010197F1F7BA
:1004E0008BE190E060E070E00E943E00C80101975F
:1004F000F1F71F910F910895CF93DF93EC0102C0A4
:100500000E94590289918823D9F7DF91CF910895EC
:100510008CE10E94ED01089588E10E94ED010895AB
:10052000CF93DF93C82F80FF05C082E290E061E0A7
:1005300070E004C082E290E060E070E00E943E0063
:10054000C1FF05C083E290E061E070E004C083E297
:1005500090E060E070E00E943E00C2FF05C084E2CF
:1005600090E061E070E004C084E290E060E070E060
:100570000E943E00C3FF05C085E290E061E070E0AC
:1005800004C085E290E060E070E00E943E00DF91F0
:10059000CF9108950F931F93182F8AE190E060E0A8
:1005A00070E00E943E00812F0E9490028BE190E05B
:1005B00061E070E00E943E0000EA1FE0C801019780
:1005C000F1F78BE190E060E070E00E943E00C8012E
:1005D0000197F1F71F910F91089580E00E94CA02E0
:1005E00081E00E94CA0208951F93813019F4162FEA
:1005F000105804C0823059F4162F1054812F829560
:100600008F700E94CA02812F8F700E94CA021F91B0
:10061000089580E00E94900288EC90E020E931E0AB
:10062000F9013197F1F70197D9F783E00E94CA02E7
:1006300080E29EE40197F1F783E00E94CA0280EE17
:100640009BEA0197F1F783E00E94CA0282E00E94D0
:10065000CA0282E00E94CA0288E00E94CA0280E0C8
:100660000E94CA028CE00E94CA0280E00E94CA0274
:1006700086E00E94CA020895FF920F931F93F82EFE
:100680008AE190E061E070E00E943E008F2D82954B
:100690008F700E9490028BE190E061E070E00E9418
:1006A0003E0000EA1FE0C8010197F1F78BE190E0FE
:1006B00060E070E00E943E00C8010197F1F78F2DC5
:1006C0008F700E9490028BE190E061E070E00E94E8
:1006D0003E00C8010197F1F78BE190E060E070E027
:1006E0000E943E00C8010197F1F71F910F91FF9002
:1006F0000895CF93DF93EC0102C00E943C038991DF
:100700008823D9F7DF91CF91089581E00E94CA0232
:100710008CE00E94CA02089581E00E94CA0288E02B
:100720000E94CA0208953898369A349BFECF94B13D
:1007300085B1382F20E0290F311DC901089587B3F5
:10074000836087BB84B3806C84BB80EF81BB0E94D5
:10075000ED020E9409033E9A789486B18B6886B9AF
:100760000E949303909361008093600062E670E0C2
:100770004AE050E00E94C50381E060E00E94F4027C
:1007800082E690E00E947903EBCFFB019F01E894A1
:100790004230C4F04532B4F44A3029F497FB1EF4D9
:1007A000909581959F4F642F77270E94F603805D77
:1007B0008A330CF0895D8193CB010097A1F716F481
:1007C0005DE251931082C9010C94E603DC01FC0147
:1007D000672F71917723E1F7329704C07C916D9375
:1007E00070836291AE17BF07C8F30895AA1BBB1BA5
:1007F00051E107C0AA1FBB1FA617B70710F0A61B21
:10080000B70B881F991F5A95A9F780959095BC0141
:08081000CD010895F894FFCF1B
:00000001FF
