:100000000C942A000C9447000C9447000C94470071
:100010000C9447000C9447000C9447000C94470044
:100020000C9447000C9447000C9447000C94470034
:100030000C9447000C9447000C9447000C94470024
:100040000C9447000C9447000C9447000C94470014
:100050000C94470011241FBECFE5D4E0DEBFCDBF16
:1000600010E0A0E6B0E0EAE0F1E002C005900D92F9
:10007000AC36B107D9F710E0ACE6B0E001C01D9294
:10008000AD36B107E1F70E945D000C9483000C943B
:100090000000FC0104C05D9BFECF8CB931968081CD
:1000A0008823C9F7089510BC87E689B98AB18861A9
:1000B0008AB980B58E6880BD08951F93CF93DF9372
:1000C000B99ABE98C6980E945300C0E9D1E012E0E8
:1000D000B69BFECF84EF91E0FE013197F1F70197D7
:1000E000D9F7B699F5CF88B3812788BB80E690E031
:1000F0000E944900EDCF5D9BFECF8CB908955F9BB8
:0A010000FECF8CB10895F894FFCFF4
:0C010A0050524553534544200A0D0A0092
:00000001FF
