:100000000C942A000C9447000C9447000C94470071
:100010000C9447000C9447000C9447000C94470044
:100020000C9447000C9447000C9447000C94470034
:100030000C9447000C9447000C9447000C94470024
:100040000C9447000C9447000C9447000C94470014
:100050000C94470011241FBECFE5D4E0DEBFCDBF16
:1000600010E0A0E6B0E0EEEDF0E102C005900D92E8
:10007000A63BB107D9F710E0A6EBB0E001C01D9296
:10008000A43CB107E1F70E9493040C946D080C9412
:10009000000011B888E480B90895982F84EA86BFDB
:1000A00006B607FEFDCF81B1887F883011F080E071
:1000B000089593B984E886BF06B607FEFDCF81B1E7
:1000C000887F883111F481E00895803211F083E057
:1000D000089582E00895982F84EA86BF06B607FE49
:1000E000FDCF81B1887F803111F080E0089593B910
:1000F00084E886BF06B607FEFDCF81B1887F8034D5
:1001000011F481E00895803211F083E0089582E0D7
:10011000089584E986BF06B604FCFDCF0895982FA4
:1001200044EA34E824E946BF06B607FEFDCF81B1B4
:10013000887F8830C1F793B936BF06B607FEFDCF7A
:1001400081B1887F883129F026BF06B604FCFDCF37
:10015000EACF089583B984E886BF06B607FEFDCFCF
:1001600081B1887F883211F480E00895803311F0E6
:1001700082E0089581E0089584EC86BF06B607FE0C
:10018000FDCF83B190E0089584E886BF06B607FEF0
:10019000FDCF83B190E00895672B09F09FC00097D1
:1001A00011F4D89808958130910511F4D9980895E3
:1001B0008230910511F4DA9808958330910511F495
:1001C000DB9808958430910511F4DC98089585300A
:1001D000910511F4DD9808958630910511F4DE98AB
:1001E00008958730910511F4DF9808958A309105BC
:1001F00011F4C09808958B30910511F4C1980895B9
:100200008C30910511F4C29808958D30910511F448
:10021000C39808958E30910511F4C49808958F30D5
:10022000910511F4C59808958031910511F4C6988F
:1002300008958131910511F4C7980895843191058D
:1002400011F4A89808958531910511F4A99808959D
:100250008631910511F4AA9808958731910511F41A
:10026000AB9808958831910511F4AC9808958931BF
:10027000910511F4AD9808958A31910511F4AE9865
:1002800008958B31910511F4AF9808958E31910541
:1002900011F4909808958F31910511F49198089573
:1002A0008032910511F4929808958132910511F4EC
:1002B000939808958232910511F4949808958332A9
:1002C000910511F4959808958432910511F496984A
:1002D0000895859709F09FC097980895009711F4A5
:1002E000D89A08958130910511F4D99A08958230F1
:1002F000910511F4DA9A08958330910511F4DB9A8F
:1003000008958430910511F4DC9A089585309105A3
:1003100011F4DD9A08958630910511F4DE9A08955E
:100320008730910511F4DF9A08958A30910511F410
:10033000C09A08958B30910511F4C19A08958C30BC
:10034000910511F4C29A08958D30910511F4C39A64
:1003500008958E30910511F4C49A08958F30910557
:1003600011F4C59A08958031910511F4C69A089543
:100370008131910511F4C79A08958431910511F4E2
:10038000A89A08958531910511F4A99A08958631A6
:10039000910511F4AA9A08958731910511F4AB9A49
:1003A00008958831910511F4AC9A08958931910529
:1003B00011F4AD9A08958A31910511F4AE9A089519
:1003C0008B31910511F4AF9A08958E31910511F496
:1003D000909A08958F31910511F4919A0895803281
:1003E000910511F4929A08958132910511F4939A2E
:1003F00008958232910511F4949A089583329105FB
:1004000011F4959A08958432910511F4969A0895FD
:10041000859709F4979A08950F931F93082F182F23
:1004200080FF05C080E090E061E070E004C080E003
:1004300090E060E070E00E94CC0011FF05C081E018
:1004400090E061E070E004C081E090E060E070E086
:100450000E94CC0012FF05C082E090E061E070E0F5
:1004600004C082E090E060E070E00E94CC0013FFE6
:1004700005C083E090E061E070E004C083E090E0BC
:1004800060E070E00E94CC0014FF05C082E290E0C2
:1004900061E070E004C082E290E060E070E00E9401
:1004A000CC0015FF05C083E290E061E070E004C07D
:1004B00083E290E060E070E00E94CC0016FF05C08F
:1004C00084E290E061E070E004C084E290E060E0EB
:1004D00070E00E94CC0007FF05C085E290E061E07B
:1004E00070E004C085E290E060E070E00E94CC0023
:1004F0001F910F9108950F931F93182F8AE190E099
:1005000060E070E00E94CC00812F0E940C028BE121
:1005100090E061E070E00E94CC0000EA1FE0C801BA
:100520000197F1F78BE190E060E070E00E94CC0071
:10053000C8010197F1F71F910F91089581E00E9482
:100540007B020895813029F4862F80580E947B0217
:100550000895823021F4862F80540E947B020895F2
:100560008AE190E060E070E00E94CC008BE190E0D6
:1005700060E070E00E94CC0088EC90E020E931E07F
:10058000F9013197F1F70197D9F780E30E947B02D7
:1005900080E29EE40197F1F780E30E947B0280EA0B
:1005A0009FE00197F1F780E30E947B0280E49CE9E1
:1005B0000197F1F788E30E947B028CE00E947B02A6
:1005C00081E00E947B0286E00E947B0208950F93E7
:1005D0001F93182F8AE190E061E070E00E94CC0048
:1005E000812F0E940C028BE190E061E070E00E949C
:1005F000CC0000EA1FE0C8010197F1F78BE190E021
:1006000060E070E00E94CC00C8010197F1F71F91F3
:100610000F910895CF93DF93EC0102C00E94E7028F
:1006200089918823D9F7DF91CF9108958CE10E94B9
:100630007B02089588E10E947B020895CF93DF93A7
:10064000C82F80FF05C082E290E061E070E004C046
:1006500082E290E060E070E00E94CC00C1FF05C043
:1006600083E290E061E070E004C083E290E060E04B
:1006700070E00E94CC00C2FF05C084E290E061E01F
:1006800070E004C084E290E060E070E00E94CC0082
:10069000C3FF05C085E290E061E070E004C085E240
:1006A00090E060E070E00E94CC00DF91CF9108956F
:1006B0000F931F93182F8AE190E060E070E00E9492
:1006C000CC00812F0E941E038BE190E061E070E07E
:1006D0000E94CC0000EA1FE0C8010197F1F78BE10E
:1006E00090E060E070E00E94CC00C8010197F1F753
:1006F0001F910F91089580E00E94580381E00E94AD
:10070000580308951F93813019F4162F105804C010
:10071000823059F4162F1054812F82958F700E94C9
:100720005803812F8F700E9458031F91089580E015
:100730000E941E0388EC90E020E931E0F901319736
:10074000F1F70197D9F783E00E94580380E29EE415
:100750000197F1F783E00E94580380EE9BEA01972E
:10076000F1F783E00E94580382E00E94580382E080
:100770000E94580388E00E94580380E00E945803BA
:100780008CE00E94580380E00E94580386E00E949B
:1007900058030895FF920F931F93F82E8AE190E07B
:1007A00061E070E00E94CC008F2D82958F700E94D6
:1007B0001E038BE190E061E070E00E94CC0000EA53
:1007C0001FE0C8010197F1F78BE190E060E070E075
:1007D0000E94CC00C8010197F1F78F2D8F700E9405
:1007E0001E038BE190E061E070E00E94CC00C80144
:1007F0000197F1F78BE190E060E070E00E94CC009F
:10080000C8010197F1F71F910F91FF900895CF93C1
:10081000DF93EC0102C00E94CA0389918823D9F7B3
:10082000DF91CF91089581E00E9458038CE00E94EF
:100830005803089581E00E94580388E00E945803FD
:10084000089590E025E0969587952A95E1F78170C7
:1008500008951F93182F80ED0E944D00812F0E9454
:10086000AA0081ED0E946B0084EC86BF06B607FEED
:10087000FDCF83B18093B8001092B90084EC86BF9D
:1008800006B607FEFDCF83B18093BA001092BB007D
:1008900084E886BF06B607FEFDCF83B18093BC0017
:1008A0001092BD0084E986BF06B604FCFDCF1F91FF
:1008B00008951F93182F80ED0E944D00812F0E94F4
:1008C000AA0081ED0E946B0084EC86BF06B607FE8D
:1008D000FDCF83B18093C0001092C10084EC86BF2D
:1008E00006B607FEFDCF83B18093C2001092C3000D
:1008F00084EC86BF06B607FEFDCF83B18093B600B9
:100900001092B70084E886BF06B607FEFDCF83B11C
:100910008093BE001092BF0084E986BF06B604FC37
:10092000FDCF1F910895AF92BF92CF92DF92EF92C9
:10093000FF920F931F93DF93CF93CDB7DEB7A297AC
:100940000FB6F894DEBF0FBECDBFDE011196E7EA09
:10095000F0E08EE001900D928150E1F711B888E44B
:1009600080B90E9497038E01015F1F4F50E6E52E6C
:1009700050E0F52E44E7A42E40E0B42E6E0108941A
:10098000C11CD11C80E00E9429048091BC00909180
:10099000BD009C012F71307086FF35C08DB79EB7AA
:1009A0000A970FB6F8949EBF0FBE8DBFEDB7FEB786
:1009B0003196ADB7BEB712961C930E931197F38282
:1009C000E282358324838091BA009091BB009783A3
:1009D00086838091B8009091B900918780870E94AA
:1009E00095058091BC00EDB7FEB73A960FB6F89426
:1009F000FEBF0FBEEDBF85FF89C0C80161E770E093
:100A00000E948A052BC08DB79EB70A970FB6F8943F
:100A10009EBF0FBE8DBFEDB7FEB73196ADB7BEB767
:100A200012961C930E931197F382E28235832483EE
:100A30008091BA009091BB00978386838091B80023
:100A40009091B900918780870E949505EDB7FEB718
:100A50003A960FB6F894FEBF0FBEEDBF81E061E09D
:100A60000E948203C8010E94070483E00E94590487
:100A70002DB73EB72C5030400FB6F8943EBF0FBE96
:100A80002DBFADB7BEB71196EDB7FEB71283018388
:100A90001396BC92AE9212978091C2009091C300BF
:100AA00015969C938E9314978091B6009091B70001
:100AB00017969C938E9316978091BE009091BF00DD
:100AC00019969C938E931897E091C000F091C10005
:100AD0003197EE0FFF1FEC0DFD1D808191811B965C
:100AE0009C938E931A970E9495052DB73EB7245F6D
:100AF0003F4F0FB6F8943EBF0FBE2DBF82E061E0BE
:100B00000E948203C8010E9407043CCFC80168E824
:100B100070E076CFFB01DC010D900020E9F7119722
:100B200001900D920020E1F70895AEE0B0E0EBE90E
:100B3000F5E00C9444080D891E8986E08C831A83A5
:100B400009838FEF9FE79E838D839E01275E3F4F32
:100B5000CE0101966F89788DA9010E94B9052F8178
:100B60003885020F131FF80110822E96E4E00C94D2
:100B70006008ABE0B0E0EFEBF5E00C9436083C0128
:100B80002B015A01FC0117821682838181FD03C06B
:100B90006FEF7FEFC6C19AE0892E1E010894211CD9
:100BA000311CF3012381F20123FD859123FF819103
:100BB0002F01882309F4B2C1853239F423FD8591D0
:100BC00023FF81912F01853229F490E0B3010E9427
:100BD000AC07E7CF982FFF24EE249924FFE1FF15FF
:100BE000D0F09B3269F09C3228F4903259F0933265
:100BF00091F40EC09D3249F0903369F441E024C075
:100C000052E0F52A84E0F82A28C098E0F92A25C0A5
:100C1000E0E1FE2A22C0F7FC29C0892F80538A30E8
:100C200070F4F6FE05C0989C902C1124980E15C007
:100C3000E89CE02C1124E80EF0E2FF2A0EC09E3260
:100C400029F4F6FC6BC140E4F42A07C09C3619F481
:100C500050E8F52A02C0983649F4F20123FD959137
:100C600023FF91912F01992309F0B8CF892F855443
:100C7000833018F08052833038F444E050E0A40E02
:100C8000B51E5FE359830FC0933631F0933779F087
:100C9000933509F056C020C0F5018081898342E078
:100CA00050E0A40EB51E610101E010E012C0F50194
:100CB000C080D180F6FC03C06FEF7FEF02C0692DCA
:100CC00070E042E050E0A40EB51EC6010E94A107EC
:100CD0008C015FE7F52214C0F501C080D180F6FCDD
:100CE00003C06FEF7FEF02C0692D70E042E050E07B
:100CF000A40EB51EC6010E9496078C0150E8F52A85
:100D0000F3FE07C01AC080E290E0B3010E94AC0776
:100D1000EA948E2D90E008171907A8F30EC0F6018B
:100D2000F7FC8591F7FE81916F0190E0B3010E947D
:100D3000AC07E110EA94015010400115110579F754
:100D4000EAC0943611F0993669F5F7FE08C0F5014E
:100D5000208131814281538184E090E00AC0F50115
:100D6000808191819C01442737FD4095542F82E07A
:100D700090E0A80EB91E9FE6F92257FF09C05095D2
:100D80004095309521953F4F4F4F5F4FE0E8FE2A49
:100D9000CA01B901A1012AE030E00E94D807D82E8B
:100DA000D21840C0953729F41F2D1F7E2AE030E06D
:100DB0001DC01F2D197F9F3661F0903720F49835A4
:100DC00009F0ACC00FC0903739F0983709F0A6C0D1
:100DD00004C028E030E00AC0106114FD146020E176
:100DE00030E004C014FD166020E132E017FF08C0B7
:100DF000F501608171818281938144E050E008C0F7
:100E0000F50180819181BC0180E090E042E050E0FA
:100E1000A40EB51EA1010E94D807D82ED2188FE7C4
:100E2000F82EF122F6FE0BC05EEFF522D91438F44D
:100E3000F4FE07C0F2FC05C08FEEF82202C01D2DA3
:100E400001C0192DF4FE0DC0FE01ED0DF11D8081D4
:100E5000803319F499EEF92208C01F5FF2FE05C035
:100E600003C08F2D867809F01F5F0F2DF3FC14C08F
:100E7000F0FE0FC01E1510F09D2C0BC09D2C9E0C7B
:100E8000911A1E2D06C080E290E0B3010E94AC07CB
:100E90001F5F1E15C0F304C01E1510F4E11A01C037
:100EA000EE2404FF0FC080E390E0B3010E94AC0782
:100EB00002FF1DC001FD03C088E790E00EC088E579
:100EC00090E00BC0802F867891F001FF02C08BE28A
:100ED00001C080E2F7FC8DE290E0B3010E94AC0714
:100EE00006C080E390E0B3010E94AC079A94D91445
:100EF000C0F3DA94F101ED0DF11D808190E0B301B2
:100F00000E94AC07DD20A9F706C080E290E0B301A3
:100F10000E94AC07EA94EE20C1F743CEF30166814C
:100F20007781CB012B96E2E10C945208FC010590ED
:100F3000615070400110D8F7809590958E0F9F1FDB
:100F40000895FC016150704001900110D8F7809520
:100F500090958E0F9F1F08950F931F93CF93DF934C
:100F60008C01EB018B8181FF1BC082FF0DC02E81A4
:100F70003F818C819D812817390764F4E881F981CC
:100F80000193F983E88306C0E885F985802F0995E8
:100F9000892B31F48E819F8101969F838E8302C0BD
:100FA0000FEF1FEFC801DF91CF911F910F910895AF
:100FB000FA01AA27283051F1203181F1E8946F938A
:100FC0006E7F6E5F7F4F8F4F9F4FAF4FB1E03ED030
:100FD000B4E03CD0670F781F891F9A1FA11D680FCE
:100FE000791F8A1F911DA11D6A0F711D811D911D01
:100FF000A11D20D009F468943F912AE0269F112476
:101000003019305D3193DEF6CF010895462F4770D9
:10101000405D4193B3E00FD0C9F7F6CF462F4F7034
:10102000405D4A3318F0495D31FD4052419302D092
:10103000A9F7EACFB4E0A695979587957795679538
:10104000BA95C9F700976105710508959B01AC0138
:101050000A2E06945795479537952795BA95C9F75F
:10106000620F731F841F951FA01D08952F923F923A
:101070004F925F926F927F928F929F92AF92BF92A8
:10108000CF92DF92EF92FF920F931F93CF93DF9354
:10109000CDB7DEB7CA1BDB0B0FB6F894DEBF0FBEB1
:1010A000CDBF09942A88398848885F846E847D84FE
:1010B0008C849B84AA84B984C884DF80EE80FD8000
:1010C0000C811B81AA81B981CE0FD11D0FB6F89476
:0E10D000DEBF0FBECDBFED010895F894FFCF37
:1010DE00253032783A253032783A25303278202051
:1010EE0000504D00253032782F253032782F2530A4
:1010FE003278202533732000414D0053756E004D1C
:10110E006F6E00547565005765640054687500462F
:10111E00726900536174008B008F00930097009BDF
:06112E00009F00A3000079
:00000001FF
