:100000000C942A000C9434000C9434000C943400AA
:100010000C9434000C9434000C9434000C94340090
:100020000C9434000C9434000C9434000C94340080
:100030000C9434000C9434000C9434000C94340070
:100040000C9434000C9434000C9434000C94340060
:100050000C94340011241FBECFE5D4E0DEBFCDBF29
:100060000E943A000C9451000C9400008AE683BF71
:10007000BB9A08958AE683BFBB9A2AE040E05DE719
:1000800005C02CBFCA010197F1F72F5F2A3FC8F3C3
:100090002AEF2CBFCA010197F1F721502A30C9F786
:0600A000F5CFF894FFCF3C
:00000001FF
