:100000000C942A000C9447000C9447000C94470071
:100010000C9447000C9447000C9447000C94470044
:100020000C9447000C9447000C9447000C94470034
:100030000C9447000C9447000C94A4030C944700C4
:100040000C9447000C9447000C9447000C94470014
:100050000C94470011241FBECFE5D4E0DEBFCDBF16
:1000600010E0A0E6B0E0E2ECF8E002C005900D92EE
:10007000A837B107D9F710E0A8E7B0E001C01D929A
:10008000AE37B107E1F70E94E9030C945F040C94CA
:100090000000672B09F09FC0009711F4D8980895CD
:1000A0008130910511F4D99808958230910511F4A9
:1000B000DA9808958330910511F4DB98089584301F
:1000C000910511F4DC9808958530910511F4DD98BF
:1000D00008958630910511F4DE98089587309105D2
:1000E00011F4DF9808958A30910511F4C0980895AD
:1000F0008B30910511F4C19808958C30910511F45D
:10010000C29808958D30910511F4C39808958E30EA
:10011000910511F4C49808958F30910511F4C59894
:1001200008958031910511F4C698089581319105A3
:1001300011F4C79808958431910511F4A898089591
:100140008531910511F4A99808958631910511F42E
:10015000AA9808958731910511F4AB9808958831D4
:10016000910511F4AC9808958931910511F4AD9879
:1001700008958A31910511F4AE9808958B31910557
:1001800011F4AF9808958E31910511F49098089567
:100190008F31910511F4919808958032910511F4F1
:1001A000929808958132910511F4939808958232BE
:1001B000910511F4949808958332910511F495985E
:1001C00008958432910511F496980895859709F061
:1001D0009FC097980895009711F4D89A0895813098
:1001E000910511F4D99A08958230910511F4DA9AA3
:1001F00008958330910511F4DB9A089584309105B8
:1002000011F4DC9A08958530910511F4DD9A089572
:100210008630910511F4DE9A08958730910511F426
:10022000DF9A08958A30910511F4C09A08958B30B1
:10023000910511F4C19A08958C30910511F4C29A78
:1002400008958D30910511F4C39A08958E3091056B
:1002500011F4C49A08958F30910511F4C59A089548
:100260008031910511F4C69A08958131910511F4F8
:10027000C79A08958431910511F4A89A089585319B
:10028000910511F4A99A08958631910511F4AA9A5D
:1002900008958731910511F4AB9A0895883191053D
:1002A00011F4AC9A08958931910511F4AD9A08952D
:1002B0008A31910511F4AE9A08958B31910511F4AC
:1002C000AF9A08958E31910511F4909A08958F3167
:1002D000910511F4919A08958032910511F4929A42
:1002E00008958132910511F4939A0895823291050F
:1002F00011F4949A08958332910511F4959A089512
:100300008432910511F4969A0895859709F4979A85
:1003100008950F931F93082F182F80FF05C080E0CA
:1003200090E061E070E004C080E090E060E070E0A8
:100330000E94490011FF05C081E090E061E070E09B
:1003400004C081E090E060E070E00E94490012FF8C
:1003500005C082E090E061E070E004C082E090E0DF
:1003600060E070E00E94490013FF05C083E090E068
:1003700061E070E004C083E090E060E070E00E9423
:10038000490014FF05C082E290E061E070E004C023
:1003900082E290E060E070E00E94490015FF05C035
:1003A00083E290E061E070E004C083E290E060E00E
:1003B00070E00E94490016FF05C084E290E061E011
:1003C00070E004C084E290E060E070E00E944900C8
:1003D00007FF05C085E290E061E070E004C085E2BF
:1003E00090E060E070E00E9449001F910F91089535
:1003F0000F931F93182F8AE190E060E070E00E9455
:100400004900812F0E9489018BE190E061E070E05A
:100410000E94490000EA1FE0C8010197F1F78BE153
:1004200090E060E070E00E944900C8010197F1F798
:100430001F910F91089581E00E94F8010895813085
:1004400029F4862F80580E94F8010895823021F403
:10045000862F80540E94F80108958AE190E060E0C0
:1004600070E00E9449008BE190E060E070E00E9443
:10047000490088EC90E020E931E0F9013197F1F78B
:100480000197D9F780E30E94F80180E29EE401978A
:10049000F1F780E30E94F80180EA9FE00197F1F70D
:1004A00080E30E94F80180E49CE90197F1F788E37A
:1004B0000E94F8018CE00E94F80181E00E94F8019E
:1004C00086E00E94F80108950F931F93182F8AE188
:1004D00090E061E070E00E944900812F0E94890154
:1004E0008BE190E061E070E00E94490000EA1FE0CB
:1004F000C8010197F1F78BE190E060E070E00E94A5
:100500004900C8010197F1F71F910F910895CF930A
:10051000DF93EC0102C00E94640289918823D9F71D
:10052000DF91CF9108958CE10E94F801089588E150
:100530000E94F8010895CF93DF93C82F80FF05C074
:1005400082E290E061E070E004C082E290E060E06E
:1005500070E00E944900C1FF05C083E290E061E0C5
:1005600070E004C083E290E060E070E00E94490027
:10057000C2FF05C084E290E061E070E004C084E264
:1005800090E060E070E00E944900C3FF05C085E292
:1005900090E061E070E004C085E290E060E070E02F
:1005A0000E944900DF91CF9108950F931F93182F58
:1005B0008AE190E060E070E00E944900812F0E9493
:1005C0009B028BE190E061E070E00E94490000EA4C
:1005D0001FE0C8010197F1F78BE190E060E070E067
:1005E0000E944900C8010197F1F71F910F910895EA
:1005F00080E00E94D50281E00E94D50208951F93F9
:10060000813019F4162F105804C0823059F4162F77
:100610001054812F82958F700E94D502812F8F7088
:100620000E94D5021F91089580E00E949B0288ECF1
:1006300090E020E931E0F9013197F1F70197D9F71E
:1006400083E00E94D50280E29EE40197F1F783E007
:100650000E94D50280EE9BEA0197F1F783E00E94A9
:10066000D50282E00E94D50282E00E94D50288E095
:100670000E94D50280E00E94D5028CE00E94D50243
:1006800080E00E94D50286E00E94D5020895FF9284
:100690000F931F93F82E8AE190E061E070E00E94D2
:1006A00049008F2D82958F700E949B028BE190E014
:1006B00061E070E00E94490000EA1FE0C801019774
:1006C000F1F78BE190E060E070E00E944900C80122
:1006D0000197F1F78F2D8F700E949B028BE190E0C4
:1006E00061E070E00E944900C8010197F1F78BE1D9
:1006F00090E060E070E00E944900C8010197F1F7C6
:100700001F910F91FF900895CF93DF93EC0102C0EA
:100710000E94470389918823D9F7DF91CF910895EB
:1007200081E00E94D5028CE00E94D502089581E00C
:100730000E94D50288E00E94D50208953E9A86B1B3
:100740008B6A86B9369A08951F920F920FB60F9250
:1007500011242F933F934F935F938F939F9324B1D3
:1007600035B18AEE91E0AC01249FC001259F900D28
:10077000349F900D1124892F86958695809378005B
:1007800010927900369A9F918F915F914F913F918E
:100790002F910F900FBE0F901F9018950F931F93DE
:1007A0000AE710E08091780090917900B8014AE062
:1007B00050E00E941A0481E066E00E94FF02C80136
:1007C0000E94840380E690E00E9484031F910F91B1
:1007D0000895B89A84B3806C84BB80EF81BB0E947B
:1007E000F8020E941403789481E060E00E94FF0206
:1007F00082E690E00E9484030E949E030E94CE0342
:1008000080917800909179004F9748F0909A919854
:1008100082E060E00E94FF0288E690E008C0919AC2
:10082000909882E060E00E94FF028FE690E00E94D4
:100830008403E4CFFB019F01E8944230C4F04532C9
:10084000B4F44A3029F497FB1EF4909581959F4F9C
:10085000642F77270E944B04805D8A330CF0895DFA
:100860008193CB010097A1F716F45DE251931082BA
:10087000C9010C943B04DC01FC01672F71917723C3
:10088000E1F7329704C07C916D9370836291AE174B
:10089000BF07C8F30895AA1BBB1B51E107C0AA1FDD
:1008A000BB1FA617B70710F0A61BB70B881F991F11
:1008B0005A95A9F780959095BC01CD010895F894BB
:0208C000FFCF68
:1008C200200054656D703D0046414E204F4E00465B
:0808D200414E204F4646000094
:00000001FF
