:100000000C942A000C9434000C9434000C943400AA
:100010000C9434000C9434000C9434000C94340090
:100020000C9434000C9434000C9434000C94340080
:100030000C9434000C9434000C9434000C94340070
:100040000C9434000C9434000C9434000C94340060
:100050000C94340011241FBECFE5D4E0DEBFCDBF29
:100060000E9436000C9451000C94000087B383600A
:1000700087BBBE98C69888B391E0892788BB20E9E2
:1000800031E043E0B69BFECF84EF91E0F901319778
:10009000F1F70197D9F7B699F5CF88B3842788BBD4
:0600A000F1CFF894FFCF40
:00000001FF
