:100000000C942A000C943C000C943C000C943C0092
:100010000C943C000C943C000C943C000C943C0070
:100020000C943C000C943C000C943C000C943C0060
:100030000C943C000C943C000C943C000C943C0050
:100040000C943C000C943C000C943C000C943C0040
:100050000C943C0011241FBECFE5D4E0DEBFCDBF21
:1000600010E0A0E6B0E001C01D92A236B107E1F7B2
:100070000E946C000C949D000C940000C39A94980C
:10008000959A979888EE93E020E931E0F90131974D
:10009000F1F70197D9F70895C398949A9598979A8C
:1000A00088EE93E020E931E0F9013197F1F701970B
:1000B000D9F708951092610010926000C39882B33E
:1000C0008F7482BB88EE93E020E931E0F90131972B
:1000D000F1F70197D9F70895CF93DF93BB9A81B3D6
:1000E000806B81BBBE98C69AC0E9D1E0B69B12C0B6
:1000F00084EF91E0FE013197F1F70197D9F7B699B6
:1001000009C0809160009091610001969093610018
:100110008093600080916000909161008130910532
:1001200019F0029739F403C00E943E00DFCF0E940D
:0E0130004C00DCCF0E945A00D9CFF894FFCFCC
:00000001FF
