:100000000C942A000C9434000C9434000C943400AA
:100010000C9434000C9434000C9434000C94340090
:100020000C9434000C9434000C9434000C94340080
:100030000C9434000C9434000C9434000C94340070
:100040000C9434000C9434000C9434000C94340060
:100050000C94340011241FBECFE5D4E0DEBFCDBF29
:100060000E9436000C944E000C9400008FEF81BB70
:1000700012BE85E083BF80E090E021E030E108B669
:1000800000FEFDCF22BF28BF019686309105B8F350
:1000900082B3832782BB80E090E0F1CFF894FFCF5A
:00000001FF
