:100000000C942A000C9434000C9434000C943400AA
:100010000C9434000C9434000C9434000C94340090
:100020000C9434000C9434000C9434000C94340080
:100030000C9434000C9434000C9434000C94340070
:100040000C9434000C9434000C9436000C9434005E
:100050000C94340011241FBECFE5D4E0DEBFCDBF29
:100060000E9458000C9464000C9400001F920F92A0
:100070000FB60F9211242F933F938F939F93EF937B
:10008000FF9385B3809585BB84EF91E020E931E053
:10009000F9013197F1F70197D9F7FF91EF919F910E
:1000A0008F913F912F910F900FBE0F901F90189539
:1000B00087E084BB15BA17BA84E088BB80E28BBFA7
:0C00C00080E484BF7894FFCFF894FFCF59
:00000001FF
