:100000000C942A000C943F000C943F000C943F0089
:100010000C943F000C943F000C943F000C943F0064
:100020000C943F000C943F000C943F000C943F0054
:100030000C943F000C943F000C943F000C943F0044
:100040000C943F000C943F000C943F000C943F0034
:100050000C943F0011241FBECFE5D4E0DEBFCDBF1E
:1000600010E0A0E6B0E0E2EEF0E002C005900D92F4
:10007000A236B107D9F70E944B000C946F000C9484
:10008000000010BC87E689B98AB188618AB980B559
:100090008E6880BD0895B99ABE98C6980E944100A6
:1000A0004091600020E931E052E0B69BFECF84EF42
:1000B00091E0F9013197F1F70197D9F7B699F5CFAA
:1000C00088B3852788BB5D9BFECF4CB9EECF5D9B87
:1000D000FECF8CB908955F9BFECF8CB10895F89444
:0200E000FFCF50
:0200E2005000CC
:00000001FF
