:100000000C942A000C9459000C9460000C94340059
:100010000C9434000C9434000C9434000C94340090
:100020000C9434000C9434000C9434000C94340080
:100030000C9434000C9434000C9434000C94340070
:100040000C9434000C9434000C9467000C9434002D
:100050000C94340011241FBECFE5D4E0DEBFCDBF29
:100060000E9436000C946E000C94000087B38067E9
:1000700087BBBA9881B3837F81BB80EE8BBF83E05F
:1000800085BF8CE085BF80E484BF789430E220E4B3
:1000900090E188B3832788BB88B3822788BB88B365
:1000A000892788BBF6CFC498FECFC598FECFC698E7
:1000B000FECF1F920F920FB60F921124C498FECF5D
:1000C0001F920F920FB60F921124C598FECF1F9268
:1000D0000F920FB60F921124C698FECFF894FFCF5F
:00000001FF
